:100000000C94D9030C94F6030C94F6030C94F603A9
:100010000C94F6030C94F6030C94F6030C94F6037C
:100020000C94F6030C94F6030C94361A0C9478197D
:100030000C94072D0C94F6030C94F6030C94F60321
:100040000C94F6030C94F6030C94F6030C94F6034C
:100050000C94F6030C94C92C0C94F6030C94F60340
:100060000C94F6030C94F6030C94F6030C94F6032C
:100070000C94F6030C94F6030C94F6030C94F6031C
:100080000C94F6030C94F6030C94F6030C94F6030C
:100090000C94F6030C94F6030C94F6030C94F603FC
:1000A0000C94F6030C94F6030C94F6033909AD098D
:1000B00041090B090F0945091209480953091D098E
:1000C000A3092109570925095B09850929095F0940
:1000D0008F092F0965096F0916094C0919094F097C
:1000E00034096A097B099B099D0907093D09B6097D
:1000F000DC09E209D009D609E809EE09F409160B72
:10010000160B460B460BD80BF60B230D230DFB0BE2
:10011000730C860C860C7B1391139713A715A715E8
:10012000CF13DF13F21336143B1463148614BC147C
:10013000BF14CB14D514ED14251537155D157F1597
:100140007C17A3176019A3176019EF17121860190D
:1001500014192419FD377A585A000004E6D6B4461B
:100160000200210116000000742FE5A3E003220124
:100170005C5D003D8889C65436C3174FE4F5630BB8
:10018000512CF47BA5889D8667E34ABE27BD82A2D9
:10019000771BE3BB199E5EAB447C3ABB131AA2E308
:1001A0004857F06F9819DF47A9E15FCDA6C981577D
:1001B00014E13B44DDAA80D546CB672FF1BBD39732
:1001C0009C8CEB490319553EE56627C812C5119171
:1001D000204167967509CD8DB14006E53AAFB07004
:1001E00054D019153D603957A8DB1DBB31412A2A6F
:1001F0005474D48796C3E6B34B5013EB02C14A4BF9
:1002000021D052AD43590AA49B13B39A38139D1FB2
:10021000AADEB39645E1B0BA7E1936804B54B1C917
:10022000816B3447F92D13D31CAFE09B1843425E1A
:100230009F0B11944AA8B72DAEF02D24C955A10EDD
:10024000A48E7280C040E6E29B66BF32E1CE506E63
:1002500038BB0C0766B61D9173C12CD6524BE75FB5
:100260006AD460C6A0427D9165031EF96D7CEE28BC
:100270005C219DC8551A926968B5B65954CEE3CA37
:10028000E595B132A9345518BF5E8F5F48B023C4DD
:100290007DFCFF5E836A9054D81E6136C09810E2E0
:1002A000FC82FD9F6A5F7DC88AB39AD664065AA70E
:1002B000C66CA1784D4FD0ADDF3CFE9618564B670B
:1002C0002FA79D8A28EB00F6420E846A1260400038
:1002D0003307E4712E3545EC0001F802A306000057
:1002E00090D6071BB1C467FB020000000004595AF6
:1002F00005010902A10185020901A10005091901F1
:1003000029081500250195087501810205010930AC
:1003100009311581257F95027508810609381581F7
:10032000257F950175088106050C0A38021581257F
:100330007F950175088106C0C005010980A101856E
:100340000319012AB700150126B700950175108120
:1003500000C0050C0901A101850419012AA002159C
:100360000126A002950175108100C005010906A1B2
:10037000018506050719E029E7150025019508758F
:100380000181020507190029EF1500250195F07577
:10039000018102050819012905950575019102954C
:1003A0000175039101C00660FF0961A10109621591
:1003B0000026FF009520750881020963150026FFBD
:1003C00000952075089102C005010906A1010507E5
:1003D00019E029E7150025019508750181029501AD
:1003E000750881010507190029FF150026FF0095F2
:1003F00006750881000508190129051500250195D4
:100400000575019102950175039101C009025B0018
:10041000030100A0FA090400000103010100092101
:1004200011010001224400070581030800010904AD
:100430000100020300000009211101000122220035
:1004400007058203200001070503032000010904BA
:100450000200010300000009211101000122B60081
:10046000070584032000011201000200000008EDCE
:10047000FE00000001010203011C03760069006117
:10048000006C003A006600360034006300320062FF
:10049000003300630000001A036C006F0062006FFD
:1004A0000074006F006D0079005F007900650075D1
:1004B0000000000C037900650075006D0065000008
:1004C000000403090401000100E60429220E2200B1
:1004D0000002000200E20429220E220000030001B3
:1004E00000E70429220E22000004000200CC0429A7
:1004F000220E22682105000100E80429220E2200B4
:100500000006000200CE0429220E2200000700028D
:1005100000E40429220E22000008000100E9042959
:10052000220E22000009000200D00429220E2243DC
:10053000210A000200D20429220E2243210B0002CC
:1005400000D40429220E2243210C000200D60429E3
:10055000220E2243210D000200D80429220E22433C
:10056000210E000200DA0429220E2243210F00028C
:1005700000DC0429220E22432110000200DE04299F
:10058000220E22432111000200E00429220E224300
:100590002112000200EA0429220E220000130002A8
:1005A00000EC0429220E22000014000100EE0429B0
:1005B000220E220000150000000000C6208E21003F
:1005C0000014001A000800150017001C0018000C89
:1005D000001200130004001600070009000A000BB7
:1005E000000D000E000F0033001D001B0006001957
:1005F0000005001100100036003700380000000030
:10060000002A002B00000000002C00280000000041
:100610000014001A000800150017001C0018000C38
:10062000001200130004001600070009000A000B66
:10063000000D000E000F0033001D001B0006001906
:1006400000050011001000360037003800000000DF
:10065000002A002B00000000002C002800000000F1
:100660000014001A000800150017001C0018000CE8
:10067000001200130004001600070009000A000B16
:10068000000D000E000F0033001D001B00060019B6
:10069000000500110010003600370038000000008F
:1006A000002A002B00000000002C002800000000A1
:1006B0000014001A000800150017001C0018000C98
:1006C000001200130004001600070009000A000BC6
:1006D000000D000E000F0033001D001B0006001966
:1006E000000500110010003600370038000000003F
:1006F000002A002B00000000002C00280000000051
:1007000000000000000000000000000000000000E9
:1007100000000000000000000000000000000000D9
:1007200000000000007E0F00D4FFFFFFC7000000A4
:100730007800000000000000002A2B2800000000C4
:100740000000000000000000000000002900000080
:10075000002C1E3420212224342627252E362D3726
:1007600038271E1F202122232425263333362E37F7
:10077000381F0405060708090A0B0C0D0E0F10118F
:1007800012131415161718191A1B1C1D2F3130239C
:100790002D350405060708090A0B0C0D0E0F101164
:1007A00012131415161718191A1B1C1D2F3130356A
:1007B0004C0011241FBECFEFDAE0DEBFCDBF11E049
:1007C000A0E0B1E0E4E0FCE602C005900D92AA379B
:1007D000B107D9F725E0AAE7B1E001C01D92AF301B
:1007E000B207E1F70E948E0D0C9400360C940000C5
:1007F000AFE0B0E0EEEFF3E00C94AC35DC01149622
:100800002C91222311F40C948A0D7C0161E00E944A
:1008100065318C01F7018581882331F1E091000574
:10082000F0910105309701F10E171F07E9F0FF273E
:10083000E830F10540F4A4E0EE0FFF1FAA95E1F7C0
:10084000E751FE4F02C0E0E0F0E0858184608583DF
:1008500011830083CF010E94482E1092FF0461E0B3
:10086000C7010E9465318C01D70115963C90332059
:1008700009F4C0C0C80197578038910508F006C137
:10088000D02EBFE0B01708F432C68FEF93E00E947D
:100890001D3581112CC60CE712E0DD2071F0011529
:1008A000E4E01E0709F423C6C8010E941D3581112A
:1008B00001C0DA940F5F1F4FF0CFE4E05E2E9E017F
:1008C0002F5F3F4F390144244A94D301E52D1D92F7
:1008D000EA95E9F76801FFEFCF1ADF0AC8010E9425
:1008E0001D358983882309F402C6813009F07EC052
:1008F000580122E0A20EB11CC6010E941D35382EFF
:100900008A83882309F4F3C58FEF830D833060F465
:10091000680133E0C30ED11CC5010E941D358B83D5
:10092000811164C08601D1CF8BEF830D833078F5C0
:10093000480143E0840E911CC5010E941D358B8344
:10094000811102C06401EECF680154E0C50ED11CD4
:10095000C4010E941D358C83882321F32B813C81A7
:1009600021308FEF380718F0922F80E001C0C901C5
:10097000A6E03A1631F0B7E03B1631F00E94B026FF
:10098000D1CF0E948B26CECF0E941126CBCFE4E0A0
:100990003E1611F06501C6CFC5010E941D35B82E67
:1009A0006801F4E0CF0ED11CC80103960E941D35EA
:1009B000BB2009F49CC5882309F499C5282F30E091
:1009C00021503109429EA001439E500D11248B2DD0
:1009D00090E00197840F951F019708F4A3CFAFE92A
:1009E000BFE01197F1F700C00000F6CFC3010E94ED
:1009F0004D3498CF6801E7E5DE1AFFEFCF16D1043A
:100A000011F008F05DC06FED71E08C2D0E942B316C
:100A1000892BB9F5C60174E0880F991F7A95E1F723
:100A2000FC01E751FE4F22812130C9F42091DF0102
:100A30003091E001232B29F12091E1013091E20175
:100A4000232BF9F02091E3013091E401232BC9F429
:100A50002091E5013091E601232B49F012C02230AC
:100A600081F42091E3013091E401232B51F0FC014A
:100A7000E251FE4F20812E7F208387519E4F0E949E
:100A8000482ED70115963C903320D9F00E35BCE79F
:100A90001B0761F00F35ECE71E0761F00D35FCE731
:100AA0001F0779F480910001811104C081E08093D7
:100AB00000011DC51092000180E00E94ED2F17C5B6
:100AC000312C80910001811108C0C80197558F3FDA
:100AD000910511F008F008C294C1380120EE621AA5
:100AE00071082090880480915A04282A809132034A
:100AF000282A38E06316710480F4980127703327A0
:100B000081E090E001C0880F2A95EAF7332011F0C8
:100B1000282A18C08095282215C0332009F432C134
:100B200010937D0100937C010E94EF2C6093C00420
:100B30007093C1048093C2049093C3041092C804BC
:100B40001092C704D7018D919C910E948B1B21E0CC
:100B500030E0F90102C0EE0FFF1F8A95E2F7FD8732
:100B6000EC872091C9043091CA04398728874091C5
:100B70007C0150917D015B874A876AEBC62E62E05B
:100B8000D62EA12CB12C832D90E09F878E8728E054
:100B9000A216B10409F40DC1C114D10409F409C1AC
:100BA000211005C0D60112968C918111E4C0F60186
:100BB000838190E02C853D8582239323892B09F442
:100BC000DAC08085982F977009F487E038E06316C3
:100BD000710440F4332019F081FD09C0CCC082FDBE
:100BE00006C0C9C0332009F4C6C080FFC4C0D60106
:100BF0008D909C900815190519F4332009F4BBC099
:100C0000E885F985EC15FD0509F4B5C0D6011D96FA
:100C1000ED91FC911E97309721F08081882309F493
:100C2000AAC0622DC6010E945A30882309F4A3C0CD
:100C30000815190519F44E845F8402C0412C512C0B
:100C4000B42DB170BF8381E08114910441F0B111E2
:100C500006C0EA85FB858E169F0609F080E080FFBE
:100C60008AC080E00E94ED2FD092CA04C092C904CD
:100C700081E08093C6048FE08A9DF0018B9DF00D8A
:100C80001124E654FD4F85818093C4042F812111E6
:100C900010C08114910469F0808191819C012450DD
:100CA0003109213A310518F40E94302D02C00E940A
:100CB000FD1F8FE08A9DF0018B9DF00D1124E654FD
:100CC000FD4FC680D780C6019A9581159F4110F4CB
:100CD00040EED42299249394C60101978F339E4706
:100CE00008F0912C8FE08A9DD0018B9DB00D1124CE
:100CF000A654BD4F1996ED91FC911A97309739F093
:100D00001B966D917C911C9781E009959822992002
:100D100059F18FE08A9DF0018B9DF00D1124E6546E
:100D2000FD4F868197810E94EC338093C50488E053
:100D30006816710420F4C6010E94A32F15C0C601D5
:100D40000497813A910520F48C2D0E945E2D0EC0EF
:100D50000E94732BAFE3BCE91197F1F700C00000CC
:100D60008C2D0E94302002C00E94732BB1E04B26D4
:100D700040FCABCE1CC1EFEFAE1ABE0AFFE0CF0EB7
:100D8000D11C05CF80917C0190917D010817190736
:100D900081F410927D0110927C011092C004109297
:100DA000C1041092C2041092C3041092C80410929D
:100DB000C7048091C9049091CA04009709F485CEB4
:100DC00038E06316710438F4622D0E945A308111A4
:100DD0007CCE81E013C0DC012D913C9102171307FA
:100DE00029F4311006C01092C60407C0332009F45C
:100DF0006CCEFC01808585FD68CE80E00E94ED2FE1
:100E000064CE5801BB24F8E0AF16B1040CF06FC3F8
:100E1000C50154E0880F991F5A95E1F79C012751AD
:100E20003E4F6901D70115962C911597FC01E251AF
:100E3000FE4F5F01808120FB80F9808315968C91A5
:100E40008823A1F10E94FB2C909398018093970135
:100E5000D60112968C9112978F5F12968C931297EF
:100E60009091FF0480913203892B13968C931397F2
:100E70008091880414968C93149716964D915C91EA
:100E800017971E966D917C911F97C6010E94292E7F
:100E9000F501808181FF03C090E080E002C0902FC7
:100EA000812F90930005809301051EC0D6011C96EA
:100EB0004D915C911D971E966D917C911F97C60177
:100EC0000E94292EF501808181FF0EC0C6010E947B
:100ED0002F2E80910005909101050817190721F424
:100EE00010920105109200058091E70480FF32C046
:100EF0000E94FB2C6C01D70115968C91882309F474
:100F000068C08091150182FF08C029E931E040E006
:100F1000B60180E090E00E94FF230431BCE71B078C
:100F200009F44FC00531ECE71E0709F443C0033153
:100F3000FCE71F0729F4809115018160809315015A
:100F4000C80190528115904308F059C01092560381
:100F500010925503F801E851FC47E730F10508F419
:100F60001BC2F7018581811135C10631BCE71B0722
:100F700009F06AC290913203292F2A7A3091E6044F
:100F800030FD3DC231FD41C232FD45C233FD49C293
:100F9000882309F44FC281E0211101C080E08093D1
:100FA0007E01222309F444C285E30E945E2D0E9443
:100FB000732B9DC280911501982F909590FB80F91D
:100FC00003C0809115018E7F809315010E94C52377
:100FD000B7CF013E110521F4809115018F7E06C027
:100FE000053E110531F4809115018F7D8093150127
:100FF00006C0C80190528115904308F4ABCF809190
:10100000150180FFA7CFD70115968C9108321105E5
:1010100038F40E311105B8F40430110578F4CCC061
:101020000933110538F40D32110590F40B32110516
:1010300079F0C2C00436110559F0BEC09091E704A2
:1010400094FDBAC009C09091E70493FDB5C004C0F7
:101050009091E70492FDB0C0882309F4A6C0909156
:10106000880480913203892B8D7F79F11092560389
:10107000109255038091E70481FD27C0F80143E0F9
:10108000F695E7954A95E1F7EE71FF27ED5CFC4F89
:1010900098012F70332781E090E002C0880F991FDC
:1010A0002A95E2F7809590952081318182239323C0
:1010B00091838083A70160E0C8010E94E4238091AE
:1010C00088048D7F0E94942A6CC089E0F701A9E909
:1010D000B1E001900D928A95E1F710929C01109277
:1010E0009B01809155039091560308171907E1F56C
:1010F0008091E70485FF38C09091150191FF02C0EF
:1011000086FF32C080915303909154035601A81A70
:10111000B90AB701C8010E94DB25A816B90620F557
:101120008091320381FF08C0809115018061809316
:10113000150182E00E94C42A8091320385FF08C015
:101140008091150180628093150180E20E94C42A7B
:101150006091150166956170A7018091550390918A
:1011600056030E94E423C3C1809188049091320306
:10117000982B969591702091150190FB21F9209361
:1011800015018D7F0E94942A1093560300935503F6
:10119000D0925403C09253038091150184608093D0
:1011A000150182E00E94D82AA2C1970140E0B60151
:1011B000C8010E94FF239BC1882309F4CBCE109263
:1011C000560310925503F801E851FC47E730F1054A
:1011D00008F4E2C01092FE04C8019057839708F00B
:1011E0000CC184E090E00E9425359093090580931E
:1011F0000805F801E150F047E232F10520F4EA5A1F
:10120000FF4F0C949F35809108058160ACC08091A0
:1012100009058860B4C0809108058260A4C08091EF
:10122000080520C08091080588609DC0809109054F
:101230001EC0809109058260A2C08091080580616E
:1012400092C08091080580628EC0809108058064FC
:101250008AC00E94681E80910805806884C08091C1
:101260000805886084607FC0809109058260816084
:1012700086C0809108058E7F76C080910905877FA2
:101280007EC0809108058D7F6EC08091080520C0CA
:1012900080910805877F67C0809109051EC08091F5
:1012A00009058D7F6CC0809108058F7E5CC08091A0
:1012B00008058F7D58C0809108058F7B54C00E941F
:1012C000681E809108058F774EC080910805877F42
:1012D0008B7F49C0809109058D7F8E7F50C08091A2
:1012E000080582FB222720F991E0922790FB82F9E2
:1012F00090FB83F938C080910905982F90959170E3
:101300008E7F892B90FB81F93AC08091080586FB7E
:10131000222720F991E0922790FB86F924C00E94B1
:10132000681E8091080587FB222720F991E092270B
:1013300090FB87F918C061E001C060E08EE090E0AA
:101340000E943B351EC08091080584FB222720F9AE
:1013500091E0922790FB84F906C080910805982FB0
:10136000909590FB80F9809308050BC0809109054A
:1013700083FB222720F991E0922790FB83F9809349
:101380000905609108057091090584E090E00E94CC
:1013900059350E94681EABC0E858FF4F0C949F352A
:1013A00006E221EE41EE6AE17CE723C007E225EE8A
:1013B00045EE6BE17CE71DC006E221EE40EE68E100
:1013C0007CE717C007E225EE44EE69E17CE711C037
:1013D00006E221EE42EE6CE17CE70BC007E225EE6F
:1013E00046EE6DE17CE705C008E221E045EE6EE1E6
:1013F0007CE7C7010E946F2E7AC081E0B6CD492FED
:10140000447409F4BFCD20E0BDCD492F417109F4EA
:10141000BBCD20E0B9CD492F487809F4B7CD20E005
:10142000B5CD927209F4B4CD882321F010927E01DB
:1014300089E2BBCD80917E01882311F085E301C054
:1014400089E20E94302DB3CD0737ECE71E0731F457
:10145000882311F081E009C081E00BC00837FCE768
:101460001F0779F4882321F082E00E94261C03C024
:1014700082E00E94191C43E062E081E00E94F71BB9
:1014800036C09801205E324520323105A8F4811122
:1014900013C00F7181E090E09C0102C0220F331F46
:1014A0000A95E2F78901622F83E090E00E943B35C4
:1014B000802F0E94321C1BC0F7018581882309F40C
:1014C0004FC003303CE71307B9F148F501155CE75D
:1014D000150701F50E94681EEFEFF4E32CE0E150E0
:1014E000F0402040E1F700C000000E94B82C80913D
:1014F0005D04877009F40EC3D70115968C9188237B
:1015000009F408C38091090582FF04C382E00E94A8
:10151000D82A00C301308CE71807A1F021C00B3591
:101520009CE71907D1F00C35ACE71A0771F00A35C2
:101530001C47B1F481E012C06FEF7FEF80E090E0D4
:101540000E9459350E94D633D2CF8091090582FB83
:10155000882780F991E0892701C080E00E94EF2A66
:10156000D70117968D919C9118970097B9F4F701C0
:10157000858100811181882349F0C8010E944F1B99
:10158000D82E682FC8010E94BF1B04C0C8010E944A
:101590008B1BD82EB8018D2D0E942B290E94482923
:1015A000182F092F86E0F701DE01119601900D92A8
:1015B0008A95E1F7D7011596BC9015971696CC90B1
:1015C000C2943FE0C32280915D048770F9F0BB2094
:1015D000E9F0892F807F803461F080E2810F8830CC
:1015E000A8F0892F807E803221F4123078F0CC2050
:1015F00069F08091090582FF09C082E00E94D82A23
:1016000080915D048770AA24A3948111A12C902E4F
:1016100092942FE09222892D90E08C30910508F071
:1016200012C2FC01E158FF4F0C949F35902F9F7020
:10163000802F807FD92E19F0D29490EFD922BB2031
:10164000A9F0DD2009F4DFC180E2810F883010F0BD
:10165000111104C08D2D0E94CB2A05C08091FF047A
:10166000D82AD092FF040E94732BCDC1812F0E94F3
:10167000FD1FDD2009F4E7C180E2810F883068F1A9
:10168000112359F18D2D0E94BD2A2AC0902F9F70E1
:10169000802F807FD92E803219F0D29480EFD8220B
:1016A000112321F0113009F469C074C0809109053B
:1016B00082FD19C0BB2059F0DD2029F08D2D0E943C
:1016C000CB2A0E94732B80E00E943020BCC180E0B6
:1016D0000E94FD1FDD2009F4B6C18D2D0E94C42A91
:1016E0000E94732BB0C1BB2081F1CC2009F456C0FD
:1016F000B1E0CB1212C0809188048D21D81609F474
:10170000A2C10E94FB2C9093870480938604809151
:101710008804D82AD092880496C18091E804823047
:1017200008F491C1C8128FC18D2D0E941E1F8D2DEE
:101730000E94A82A80915A049D2D9823D91609F455
:1017400082C1D82AD0925A047EC1CC2069F08091FF
:10175000E804823008F477C1E1E0CE1274C18091D0
:1017600032038D2109F46FC18D2D0E94171F8D2D1D
:101770000E94A82A8D2D0E94C52B65C18091EE0480
:10178000BB2021F08C1508F45EC108C0C81608F013
:101790005AC10AC0BB2031F0C11035C18D2D0E9445
:1017A0001E1F51C1C11038C18D2D0E94171F4BC182
:1017B000802F86958695837019F0813061F043C142
:1017C000BB2021F0812F902F937002C080E090E029
:1017D0000E94BA2D3FC1BB2021F0812F902F937022
:1017E00002C080E090E00E94952D34C16B2D812FC6
:1017F0000E94251F2FC1802F8370B9F5B11027C11A
:10180000912F929596959770990F990F212F2F7080
:1018100030E0A901092E01C0440F0A94EAF714FF31
:1018200008C02FE030E001C0220F9A95EAF720951A
:1018300001C020E0902F969596959370923069F0B4
:1018400088F480918C01913019F0242B822302C0FE
:10185000842B822B0E94321CFAC0242B80918C0195
:101860008227F8CF822F842BF5CFBB2019F0802F51
:10187000817001C08695882309F4E9C0912F929563
:1018800096959770990F990F212F2F7030E0A9012D
:10189000092E01C0440F0A94EAF714FF08C02FE094
:1018A00030E001C0220F9A95EAF7209501C020E0B0
:1018B000902F969596959370923059F078F4809188
:1018C0008D01913019F0242B82230AC0842B822BA6
:1018D00007C0242B80918D01822702C0822F842B88
:1018E0000E94F41BB4C0F02FFF70DF2EBB2039F034
:1018F0008F2F0E94261C812F0E941E1FA8C0812F9F
:101900000E94171F8D2D0E94191CA1C0123F11F1BA
:1019100028F4103F41F0113FA9F171C0133F01F1CC
:10192000143F61F16CC08091EE04BB2021F0C81619
:1019300008F089C003C08C1508F485C0202F2F71D2
:1019400081E090E001C0880F2A95EAF790918D011F
:10195000892711C0802F8F71BB2009F458C06FC038
:10196000BB2041F081E0902F9F7101C0880F9A95B4
:10197000EAF701C080E00E94F41B65C08091090570
:1019800082FD06C0802F8F71BB2009F458C03FC074
:101990008091E804823008F1BB2089F090915D04C9
:1019A0009770943039F40E94D12A802F8F710E9451
:1019B000191C48C0C81608F045C063E005C0C81629
:1019C00040F00E94D12A64E0802F8F710E94062B84
:1019D00039C081E00E94D82A35C0BB2031F063E0D5
:1019E000802F8F710E94062B2EC081E00E94D82A82
:1019F00021E02C1540F582E00E94D82A24C0BB20AB
:101A000049F0CC2011F0812F5FCE802F8F710E9482
:101A1000261C19C0CC2089F0193329F48091EC04DC
:101A20009091ED0404C08091EA049091EB040E942F
:101A3000F423812F0E94FD1F06C0802F8F710E940A
:101A4000191C01C0A12C88EF890D843018F40E9464
:101A5000DF2DA12C812F902F0E94351C8823F1F1BE
:101A6000BB2071F0CC2019F01092830137C0809117
:101A700082018093810180913203809382012EC084
:101A80001E8220E049815A816B817C818D8190E0AA
:101A90000E94403100913203CC2019F01092830152
:101AA0001BC020917F013091800182179307A1F420
:101AB0008091E90483FFF2CF80918301882371F341
:101AC000809181010E941E1F812F0E94B820809169
:101AD00081010E94171FE2CF00938201AA20B1F07A
:101AE00080915D0480FD12C0D70115961C928695E9
:101AF000869586950E94261CC7010E94F803809156
:101B00005D048695869586950E94191C60E0C70144
:101B10000E9465312F96E2E10C94C835ABE3B0E04A
:101B2000E4E9FDE00C94AC3585B7806885BF85B7E6
:101B3000806885BF84B7877F84BF0FB6F894A89567
:101B400080916000886180936000109260000FBEF9
:101B500090E080E80FB6F894809361009093610064
:101B60000FBE81E080930E0182E797E290937B01A4
:101B700080937A010E94F9250E9497250E942B25C7
:101B80000E94B2240E94BC190E94DB198091E200DD
:101B900084608093E20078948091BC018823A1F056
:101BA0001091E9001F709091EC00892F817090FDD9
:101BB00080E8182B1092E9008091E80083FD0E94D4
:101BC00094161F701093E90082E084BD93E095BDE8
:101BD0009AEF97BD80936E000E94102E811102C073
:101BE0000E941B3103E211E0A7E2EA2EA1E0FA2EE7
:101BF000D8018D918D018F3F11F00E945F28E01672
:101C0000F106B1F707E211E0F1E3EF2EF1E0FF2E6C
:101C1000F80181918F018F3F11F00E945F28E0163B
:101C2000F106B1F788E0E7EAF1E0DF01282F1D9225
:101C30002A95E9F7E4E8F1E0DF011D928A95E9F7DA
:101C400080E090E00E942535853E9E4F21F40E9461
:101C5000102E811163C065EE7EEF80E090E00E945F
:101C6000593560E082E090E00E943B3581E080934E
:101C70008C0161E083E090E00E943B3560E074E11C
:101C800084E090E00E94593560E086E090E00E9498
:101C90003B3560E087E090E00E943B3540E050E05B
:101CA000BA0188E090E00E944D3560E083E290E068
:101CB0000E943B3560E08CE090E00E943B3560E0A4
:101CC0008DE090E00E943B3519821A821B821C82B3
:101CD0001D821E821F82188648E050E067E170E096
:101CE000CE0101960E942B3540E050E0BA018FE111
:101CF00090E00E944D3580E00E94F12D0E941B3142
:101D000040E050E0BA018FE090E00E944D3540E0A5
:101D100050E0BA0183E190E00E944D3582E090E00E
:101D20000E941D3580938E0184E090E00E9425354D
:101D300090930905809308050E947628EFEFF6E757
:101D400021E0E150F0402040E1F700C000000E9497
:101D500076288091A70180FF08C06FEF7FEF80E0B9
:101D600090E00E9459350E94B82C83E090E00E94D8
:101D70001D350E94321C81E091E09093050580930F
:101D8000040577247394662463941E013BE2230EBA
:101D9000311C8E010F5F1F4F8091BC01853009F00F
:101DA00040C0E0E4FE2E8091BC01853009F035C0D2
:101DB0008091BC01843019F110920A0588E190E00D
:101DC0000FB6F894A895809360000FBEF092600063
:101DD00083B7817F846083BF83B7816083BF78943A
:101DE000889583B78E7F83BF0FB6F894A8958091AE
:101DF0006000886180936000109260000FBE0E94B6
:101E00007628E7EAF1E081919191892B09F0A6C645
:101E100091E0EF3AF907B9F7C6CF0E94681E0E9419
:101E2000DF2D0E9476287FE8E72E71E0F72EE7EAA3
:101E3000F1E0FBAFEAAF27E931E0DF01F7014191C3
:101E400051918D919D91842795272E173F0719F069
:101E5000892BA9F305C0892B19F40E94652A40C07B
:101E6000512CAAADBBAD8D909D90BBAFAAAFF70131
:101E7000A080B180A824B924A114B10441F1412C5F
:101E8000CC24C394D12CC5018C219D21892BB1F088
:101E90004CAA5DAA0E94FB2C9FAB8EAB68AE91E072
:101EA00094012C213D21232B09F490E099AF4CA9FA
:101EB0005DA96EA97FA988AD0E9474314394CC0CB2
:101EC000DD1CFAE04F12DFCFD7018D929C92539424
:101ED000B2E0EB0EF11CE4E05E12C3CF0E94EF2CE7
:101EE0008091C7049091C804892BB9F1C090BC04BB
:101EF000D090BD04E090BE04F090BF040E94EF2C8F
:101F0000DC01CB018C199D09AE09BF09C090B80452
:101F1000D090B904E090BA04F090BB048C159D05F4
:101F2000AE05BF05D0F08091C7049091C8040E940F
:101F300033341092C8041092C7041092BC0410925B
:101F4000BD041092BE041092BF041092B804109207
:101F5000B9041092BA041092BB04809100059091CC
:101F60000105892B79F1E0909701F09098010E948A
:101F7000FB2C8E199F097C0189E0D1011D928A9565
:101F8000E9F7B10180910005909101050E94DB25E0
:101F90008E159F05B8F48091000590910105992751
:101FA0008830910540F444E0880F991F4A95E1F785
:101FB00087519E4F02C080E090E0FC01258122FF06
:101FC0000E94482E80911601882359F1E090050463
:101FD000F0900604E114F10421F10E94FB2C8E190B
:101FE0009F09209157033091580328173907C8F4E7
:101FF0009091030480910404981759F00E942C23B7
:102000001092580310925703109206041092050480
:1020100008C00E94C22210920604109205040E9479
:102020000C238091E70480FF1EC08091150182FF80
:102030001AC00E94FB2C2091530330915403AC0131
:10204000421B530B20911301309114014217530787
:1020500050F029E931E041E0BC01809155039091B5
:1020600056030E94FF2386E0E6EFF4E0D8010190DA
:102070000D928A95E1F79090F704A090F804B09043
:10208000F904E090FA04F090FB041092F804109226
:10209000F9041092FA041092FB04A11003C0BB20B3
:1020A00009F45AC0C090F404D090F5040E94FB2CAF
:1020B000AC014C195D099091CB04992339F0209122
:1020C000110130E02417350758F046C02091120165
:1020D000FAE02F9F900111242417350718F03CC017
:1020E0009F3F19F09F5F9093CB04AA2061F00E945C
:1020F000462F1A1414F491E001C09FEF899F802DA0
:1021000011248093F804BB2061F00E94462F1B1419
:1021100014F09FEF01C091E0899F802D11248093DE
:10212000F9048091F8048823B9F0D090F904DD20F7
:1021300099F00E94952F882319F08093F80402C02B
:102140007092F8048D2D0E94952F882319F08093AA
:10215000F90402C07092F904E11003C0FF2009F4F1
:102160005AC0C090F204D090F3040E94FB2CAC0142
:102170004C195D099091F004992339F020910F01D9
:1021800030E02417350758F046C0209110018AE04E
:10219000289F900111242417350718F03CC09F3F59
:1021A00019F09F5F9093F004EE2061F00E940D2FD4
:1021B0001E1414F491E001C09FEF899F802D11241B
:1021C0008093FA04FF2061F00E940D2F1F1414F079
:1021D0009FEF01C091E0899F802D11248093FB0423
:1021E0008091FA048823B9F0D090FB04DD2099F0A7
:1021F0000E94952F882319F08093FA0402C07092F0
:10220000FA048D2D0E94952F882319F08093FB04EA
:1022100002C07092FB048091F70489111AC080916A
:10222000F804882311F08A1114C08091F9048823DE
:1022300011F08B110EC08091FB04882311F08F11D7
:1022400008C09091FA04992331F081E09E1104C0F6
:1022500002C081E001C080E080FD15C08091F804DB
:1022600081110FC08091F90481110BC08091FA0493
:10227000811107C081E09091FB04911103C080E0BF
:1022800001C081E080FD0E94E32E9A82AB82BC8275
:10229000ED82FE8286E0F801A6EFB4E001900D9297
:1022A0008A95E1F70E94DF2D9091A201891721F014
:1022B0008093A2010E94EF2C8091BC01843009F030
:1022C0006BCD83E08093E9008091E80082FF64CDCC
:1022D0008091E80085FF21C00E941C1B81111BC05A
:1022E00030E2C32ED12C780109C08091F100D701D2
:1022F0008D937D01B1E0CB1AD10869F08091E8009F
:1023000085FDF3CF8091E8008B778093E8000E94F1
:102310001C1B882399F391E001C090E08091E800B4
:102320008B778093E800992309F436CDE090AF01D4
:10233000F090B0018981E114F10461F08E3F09F061
:1023400006C48A81833008F4CAC18550833008F0FE
:10235000FEC3C5C18B3009F4A9C110F5853009F45D
:1023600078C0B0F48230C1F130F4813009F0EDC3AF
:102370001A8289E018C3833009F45EC0843009F002
:10238000E4C34C816B818A810E9466229D830AC4CA
:10239000873009F4DAC308F0D8C30E948A30D7C363
:1023A000803109F4C1C060F48D3009F460C008F4D4
:1023B0005BC08E3009F45EC08F3009F486C0C5C39F
:1023C000823109F4B7C008F4B2C0833109F4DCC02B
:1023D0008E3F09F484C1B9C38A81823009F4DBC31A
:1023E000833051F0813009F0B0C30E94EF2C9B8301
:1023F0008C837D836E83ABC38091B6049091B704C8
:10240000892B09F4A4C38091A7019091A8019B8313
:102410008C838091A9019091AA019D838E838091E4
:10242000AB019091AC019F8388878091AD01909121
:10243000AE0199878A878BC38A81823009F085C370
:102440006B817C818D819E810E94A5350E94EC2D3F
:102450007EC32D813E813227232732274C816B8119
:102460008A810E943F2273C3E0E1EA8370C37A82CB
:1024700084E899C2EA80FB80FE24EF24FE24AC802D
:10248000B12CFDE1AF16B10408F061C36801C701CA
:1024900084589D4F9601201B310B2A153B0508F0EF
:1024A00056C324E8E21621E0F20630F40E941D35FE
:1024B000D60114968C9302C0F6011482FFEFEF1A36
:1024C000FF0A2FEFC21AD20AE2CF8091B604909190
:1024D000B704892B09F43BC3EA80FB80FE24EF2478
:1024E000FE24CC80D12C3DE1C316D10408F02FC3CB
:1024F0005801C70184589D4F9501201B310B2C15A5
:102500003D0508F024C344E8E41641E0F40628F44D
:10251000D50114966C910E943B35BFEFEB1AFB0A74
:10252000EFEFAE1ABE0AE5CF0E947A3010C384E006
:102530008A830DC3EA80FB80FE24EF24FE24AC8056
:10254000B12CFDE1AF16B10408F001C36801C70169
:1025500088969601201B310B2A153B0508F0F7C21F
:1025600020E4E21621E0F20630F40E941D35D60187
:1025700014968C9302C0F6011482FFEFEF1AFF0A43
:102580002FEFC21AD20AE3CFEA80FB80FE24EF24A9
:10259000FE24AC80B12C3DE1A316B10408F0D7C2F3
:1025A000270148E2440E511C80E4E81681E0F80659
:1025B00008F0CDC280E491E08E199F098A159B0531
:1025C00008F4C5C28091B6049091B704892B11F02C
:1025D000680163C0E0FE0FC0C70187960E941D35E9
:1025E00090E0982F88272D81822B81159C4731F40C
:1025F0008FEF8D8303C0C12CD12C03C0CC24C39496
:10260000D12CC7018A0D9B1D450180FF1EC0B1E082
:102610008B1A9108E5E0F0E0EC0FFD1FE80DF91DC5
:10262000FBAFEAAFC2018A0D9B1D0E941D35AAAD0A
:10263000BBAD2C9130E0322F2227282B21153C47AF
:1026400021F48FEFEAADFBAD8083F801EC0DFD1DA9
:102650002FEFCF01801B910B8815990508F0B8CF9B
:10266000848190E0982F88273581832B81159C47A2
:1026700011F4248325833296ECCF40E4E41641E044
:10268000F40628F4D60114966C910E943B35BFEFF6
:10269000EB1AFB0AEFEFCE1ADE0AC7018896960105
:1026A000201B310B2A153B0540F351C28091B60423
:1026B0009091B704892B09F44AC240E250E0B80176
:1026C00082E00E945F2CFFEF21EE34E0F1502040C9
:1026D0003040E1F700C000000E94B82C38C2EA8107
:1026E0008E2F90E08E30910508F031C2FC01E55745
:1026F000FF4F0C949F3588E0EBE1F1E0DE0191960D
:1027000001900D928A95E1F780E2D8011D928A9599
:10271000E9F786E0898388E0FE01B196DE0115962F
:10272000E9C18CE989837A821B821C8210C28C8168
:1027300090E0982F88272B81820F911D092E000C85
:10274000AA0BBB0B75E0880F991FAA1FBB1F7A95B8
:10275000D1F7AC01BD01405E5F4F6F4F7F4F48170F
:1027600059076A077B0708F4F2C18C39E1E09E073C
:10277000A105B10508F0EBC14D39F1E05F07610536
:10278000710520F04CE951E060E070E0481B590B06
:10279000BC016C5A7E4FC8010E940435D8C140E28A
:1027A00050E06FEF70E0C8010E94F9358091B604E7
:1027B0008983EA821B821C821D827E82C8C181E0DD
:1027C00090E09093B0018093AF0182E390E090930A
:1027D000A6018093A5010E94FB2C9093A4018093F5
:1027E000A301B5C1EF28C9F18091A7019091A8017B
:1027F0009C01369527958170D82ED222E090A301B6
:10280000F090A4010E94FB2C8E199F09853691053A
:10281000F0F0DD20E1F00E94FB2C9093A401809366
:10282000A3018091A5019091A60101979093A60123
:102830008093A501892B89F41092B0011092AF0109
:1028400081E090E09093B7048093B60406C082E3E1
:1028500090E09093A6018093A5018091B6048983AE
:102860008091AF018A838091A5019DC01092B70429
:102870001092B6046CC1EB80FC8040E250E06FEF38
:1028800070E0C8010E94F93525EC34E0A1ECB5E018
:1028900080E090E0AC014E5F5F4F4132510508F09F
:1028A00056C1F90165917491E616F70630F4F80106
:1028B000E80FF91F71836083CA01245F3F4FA2179D
:1028C000B30741F744C12B813C8185EC94E0FC01C6
:1028D000459154912417350731F00C9645E0813C21
:1028E0009407A9F732C1009709F42FC1FC0136966D
:1028F000259134912115310509F427C14FE150E0AC
:10290000BE016E5F7F4FF901099520C12B813C818B
:1029100081EC95E045ECE42E44E0F42EF70145917E
:1029200054912417350739F0FCE0EF0EF11C8E1599
:102930009F05A1F70AC1E114F10409F406C1F701EA
:102940003896259134912115310509F4FEC04CE1EA
:1029500050E0BE016B5F7F4FC701F90109950097F9
:1029600009F0F4C0F7013A9685919491009711F01F
:10297000FC01099580E0EAC00E94D924E8C0EB81FF
:102980008E2F90E08730910508F0E1C0FC01E756FA
:10299000FF4F0C949F3580E2D8011D928A95E9F78C
:1029A00088E089838A838B83D2C08C819AE0D92E78
:1029B0007E01B1E2EB0EF11CF7012D2D11922A954B
:1029C000E9F7B7010E942B318983F701DE011296E6
:1029D00001900D92DA94E1F7BAC0FC808AE0FE0122
:1029E0003596DE01919601900D928A95E1F789A1C5
:1029F0009AA10E9462279AA389A38BA19CA10E94FD
:102A000062279CA38BA38DA19EA10E9462279EA3F7
:102A10008DA38FA198A50E94622798A78FA337E066
:102A20003F1570F04AE0F49EB001112464577E4FC8
:102A30004AE050E0CE0181960E945F3580E001C0FF
:102A40008FEF89830E94F92582C06C81CE01819627
:102A50002AE0DC011D922A95E9F7683008F043C0AE
:102A6000BAE06B9FB001112464527E4F36C0FC80E7
:102A70008AE0FE013596DE01919601900D928A95CD
:102A8000E1F789A59AA50E9462279AA789A7E7E09E
:102A9000EF1570F0FAE0FF9EB001112464527E4FF2
:102AA0004AE050E0CE0181960E945F3580E001C08F
:102AB0008FEF89830E9497254AC06C81CE01819651
:102AC0002AE0DC011D922A95E9F7683060F4BAE04B
:102AD0006B9FB0011124645D7D4F4AE050E00E947D
:102AE0000D3580E001C08FEF89838AE0FE01B19649
:102AF000DE01129601900D928A95E1F728C0FC80C4
:102B00008AE0FE013596DE01919601900D928A953C
:102B1000E1F78BA19CA10E9462279CA38BA3E7E015
:102B2000EF1570F0FAE0FF9EB0011124645D7D4F57
:102B30004AE050E0CE0181960E945F3580E001C0FE
:102B40008FEF89830E942B2502C08FEF898340E29B
:102B500050E0B80182E00E945F2C1EC98091BB0149
:102B6000882309F420C9A0E1A9BDB2E1B9BD09B427
:102B700000FEFDCF8091D8008F7D8093D80080919A
:102B8000E00082608093E0008091E00081FDFCCF56
:102B90000E94681E08C987E290E00E941D351B82D2
:102BA0001C821D828E83D3CF8091BE0187FF11C00E
:102BB0008091E80082FD05C08091BC018111F8CFB1
:102BC00011C08091E8008B770BC08091BC018823F5
:102BD00049F08091E80080FFF8CF8091E8008E777F
:102BE0008093E8000895982F973068F59093E90056
:102BF000981739F07091EC002091ED005091F000A1
:102C000003C0242F762F50E021FD02C09F5FECCF40
:102C10003091EB003E7F3093EB003091ED003D7F33
:102C20003093ED003091EB0031603093EB00709306
:102C3000EC002093ED005093F0002091EE0027FD72
:102C4000E5CF80E008958F708093E90081E00895DA
:102C50002091C4013091C5012617370748F061154E
:102C6000710539F42091E8002E772093E80001C027
:102C7000B901FC0120E06115710579F18091BC0179
:102C80008823F1F18530F1F18091E80083FD3CC0AB
:102C90008091E80082FD2EC08091E80080FFEBCF9C
:102CA0002091F3008091F20090E0922B6115710564
:102CB00051F08830910538F421912093F100615052
:102CC00071090196F3CF21E0089709F020E0809187
:102CD000E8008E778093E800CECF2111CFCF0AC0D5
:102CE0008091BC01882361F0853061F08091E8001B
:102CF00083FD0AC08091E80082FFF2CF80E0089552
:102D000082E0089583E0089581E0089543E050E073
:102D1000BC0184E00E945F2C089546E050E0BC01B5
:102D200084E00E945F2C0895AAE2B0E0EAE9F6E1AF
:102D30000C94BB35EEEBF1E086EC91E02091F100D4
:102D400021938E179F07D1F78091BF01833009F43B
:102D500063C030F4813071F0823009F4A2C0B9C090
:102D60008A3009F48EC08B3009F46EC0893009F0C6
:102D7000B0C020C08091BE01813A09F0AAC0809104
:102D8000E800877F8093E8008091C2019091C301A1
:102D9000892B21F468E082EB91E003C060E080E0E1
:102DA00090E070E00E9428168091E8008B77809375
:102DB000E8008FC08091BE01813209F08AC0809105
:102DC000C2019091C301009719F0029709F081C0E8
:102DD0008091E800877F8093E8008091E80082FD81
:102DE00005C08091BC018111F8CF73C02091F30020
:102DF0008091F20090E0922B029731F48091F100E3
:102E0000813011F0863021F48091F10080930C0123
:102E10008091E8008B7759C08091BE01813A09F01A
:102E200058C08091C2019091C301892B09F051C013
:102E30008091E800877F8093E8008091E80080FF20
:102E4000FCCF80910D013CC08091BE01813209F020
:102E500040C08091C2019091C301892BD1F580912E
:102E6000E800877F8093E8000E94D41581E090916C
:102E7000C001911101C080E080930D010E94681E85
:102E800028C08091BE01813221F58091E800877FC2
:102E90008093E8000E94D4158091C10180930B01BA
:102EA00018C08091BE01813AA1F48091E800877F2B
:102EB0008093E8008091E80080FFFCCF80910B01B7
:102EC0008093F1008091E8008E778093E8000E9463
:102ED000D4158091E80083FFF3C18091BE019091E9
:102EE000BF01492F50E04A30510508F0E9C1FA010D
:102EF000E056FF4F0C949F35803821F0823809F05E
:102F0000DFC108C08091BA019091BB01992389F07B
:102F100082600FC08091C2018F70873008F0D0C1ED
:102F20008093E9008091EB0085FB882780F910925F
:102F3000E9009091E800977F9093E8008093F1007A
:102F40001092F1007DC1282F2D7F09F0B9C188238F
:102F500019F0823061F0B4C18091C001813009F074
:102F6000AFC1933009F080E08093BB012EC0809107
:102F7000C00181112AC08091C2018F702FEF280FEC
:102F8000263008F09DC18093E9002091EB0020FFDE
:102F90001CC0933021F48091EB00806214C09091AA
:102FA000EB0090619093EB0021E030E0A90102C0BA
:102FB000440F551F8A95E2F74093EA001092EA0009
:102FC0008091EB0088608093EB001092E900809183
:102FD000E800877F8093E8000E94D41571C18111B9
:102FE0006FC11091C0011F778091E3008078812B21
:102FF0008093E3008091E800877F8093E8000E943F
:10300000D4158091E80080FFFCCF8091E3008068B8
:103010008093E300111102C082E001C083E080933D
:10302000BC014EC18058823008F04AC12091C001D5
:103030003091C1012C3D53E0350779F583E08A8357
:103040008AE289834FB7F894DE01139620E03EE0D0
:1030500051E2E32FF0E050935700E49120FF03C0CA
:10306000E295EF703F5FEF708E2F90E0EA3010F046
:10307000C79601C0C0968D939D932F5F243149F769
:103080004FBF8091E800877F8093E8006AE270E09C
:10309000CE0101960E942816C1C08091C201909174
:1030A000C301432F552743305105B1F068F4413037
:1030B000510509F414C14230510509F001C18BE5F5
:1030C00090E0ECE0F4E057C04132510589F1423222
:1030D000510509F43CC0F4C0C9019927813091051C
:1030E000B9F070F082309105D9F0039709F0E8C08B
:1030F000E9E7F4E0E4918E2F90E0E9E7F4E038C0EE
:10310000E1ECF4E0E4918E2F90E0E1ECF4E030C0EB
:10311000E3EBF4E0E4918E2F90E0E3EBF4E028C0E1
:10312000E7E9F4E0E4918E2F90E0E7E9F4E020C0D5
:103130008330910508F0C4C0880F991FFC01E65C3C
:10314000FE4F0190F081E02D89E090E014C08330C3
:10315000910508F0B5C0FC01EE0FFF1FEC5CFE4FBF
:103160000190F081E02DDC01AF5CBE4F8C9190E0CE
:10317000009709F4A5C02091E800277F2093E8007C
:103180002091C4013091C5018217930708F49C0176
:1031900040E02115310589F18091BC01882309F4B3
:1031A0003DC08530D9F18091E80083FD37C0809122
:1031B000E80082FD2FC08091E80080FFEACF4091B7
:1031C000F3008091F20090E0942B2115310559F025
:1031D0008830910540F444914093F100319621509C
:1031E00031090196F2CF41E0089709F040E0809163
:1031F000E8008E778093E800CCCF4111CDCF0AC094
:103200008091BC01882351F0853041F08091E80025
:1032100083FD04C08091E80082FFF2CF8091E80036
:103220008B778093E8004CC0803809F049C08091CA
:10323000E800877F8093E8008091BD018093F100D2
:103240008091E8008E77C6CE81113AC08091C0018E
:103250009091C101992702979CF58091E800877FA2
:103260008093E8001091C0011093BD010E94D41515
:10327000111106C08091E30087FD02C081E001C00A
:1032800084E08093BC0142E061EC81E00E94F31590
:1032900042E261EC84E00E94F31542E261EC82E0DC
:1032A0000E94F31542E260EC83E00E94F3158091E6
:1032B000BC01843011F081E001C082E080930E01F6
:1032C0008091E80083FF10C08091E800877F8093A1
:1032D000E8008091EB0080628093EB0005C082E102
:1032E00090E0E7E6F4E047CFAA96E3E00C94D73508
:1032F0001F920F920FB60F9211242F933F934F936B
:103300005F936F937F938F939F93AF93BF93CF936D
:10331000DF93EF93FF93C091E900CF708091EC00B1
:10332000D82FD17080FDD0E81092E9008091F00094
:10333000877F8093F00078940E9494161092E900A1
:103340008091F00088608093F000CD2BCF70C09307
:10335000E900FF91EF91DF91CF91BF91AF919F91E4
:103360008F917F916F915F914F913F912F910F902E
:103370000FBE0F901F901895E8EDF0E080818E7FD2
:1033800080831092E2001092DA001092E100A0EE29
:10339000B0E08C9181608C9380818F77808319BCA1
:1033A000A7EDB0E08C918E7F8C9380818F7E80839F
:1033B0001092B1010895A0E0B0E0E1EEF9E10C94C3
:1033C000B635C8EDD0E088818F7E8883E7EDF0E0E8
:1033D00080818160808384E082BF81E08093B1013D
:1033E00088818E7F888302EE10E0F80110821092AF
:1033F000DA0081EEC82ED12CF601108288818F77F9
:10340000888388818068888388818F7D888319BCC0
:103410001092BC011092BD011092BB011092BA0132
:1034200090EEE92EF12CF70180818B7F80838881DB
:103430008160888342E060E080E00E94F315F6013D
:1034400080818E7F8083F80180818160808380818C
:1034500088608083F70180818E7F8083888180618E
:103460008883CDB7DEB7E8E00C94D2351F920F9277
:103470000FB60F9211242F933F934F935F936F9347
:103480007F938F939F93AF93BF93EF93FF9380911D
:10349000E10082FF09C08091E20082FF05C08091B7
:1034A000E1008B7F8093E1008091DA0080FF2AC0E9
:1034B0008091D80080FF26C08091DA008E7F8093B3
:1034C000DA008091D90080FF18C080E189BD82E1D7
:1034D00089BD09B400FEFDCF81E08093BC018091DD
:1034E000B10181110FC00E94BC190E94DB198091AB
:1034F000E20084608093E20005C019BC1092BC0118
:103500001092B1018091E10080FF1AC08091E20029
:1035100080FF16C08091E2008E7F8093E200809150
:10352000E20080618093E2008091D8008062809305
:10353000D80019BC85E08093BC0183E080930E0124
:103540008091E10084FF37C08091E20084FF33C0A6
:1035500080E189BD82E189BD09B400FEFDCF809183
:10356000D8008F7D8093D8008091E1008F7E80937A
:10357000E1008091E2008F7E8093E2008091E20082
:1035800081608093E2008091BD01882311F084E086
:1035900007C08091E30087FD02C081E001C083E0A5
:1035A0008093BC018091BC01843011F081E001C0A6
:1035B00082E080930E018091E10083FF2CC0809116
:1035C000E20083FF28C08091E100877F8093E100C3
:1035D00082E08093BC011092BD018091E1008E7F5A
:1035E0008093E1008091E2008E7F8093E2008091E1
:1035F000E20080618093E20042E060E080E00E94AF
:10360000F3158091F00088608093F00081E0809352
:103610000E0180930D01FF91EF91BF91AF919F91AA
:103620008F917F916F915F914F913F912F910F906B
:103630000FBE0F901F9018952091E4003091E50087
:1036400095E64091EC00842F817040FF23C080916B
:10365000E80080FD1DC08091BC01882399F0853071
:1036600099F08091EB0085FD11C04091E4005091EC
:10367000E5002417350729F3915011F09A01E1CFA5
:1036800084E0089582E0089583E0089581E008953C
:1036900080E008954091E80042FFDDCF0895CF9289
:1036A000DF92FF920F931F93CF93DF936C010091F2
:1036B0008D0180918C01082BC3E0D0E010E0C8019F
:1036C0000C2E02C0959587950A94E2F780FD04C000
:1036D0002197A8F7F12C09C0FC2EB6018C2F0E946F
:1036E0002B290E944829019799F38F2DDF91CF91C3
:1036F0001F910F91FF90DF90CF900895CF93DF93AC
:10370000EC010E944F1BBE010E942B290E944829F8
:10371000DF91CF910895292F943078F58A3068F59C
:1037200090E03AE0239F800D911D1124682F67706F
:1037300023E0969587952A95E1F7FC01EE0FFF1F90
:10374000E80FF91FEA53FE4F40E050E080E021917E
:1037500030E0062E02C0369527950A94E2F72170D4
:103760003327042E01C0220F0A94EAF7822B4F5F01
:103770005F4F4330510559F7089580E00895292F90
:10378000943088F58A3078F590E03AE0239F800DF8
:10379000911D1124282F277051E001C0550F2A9543
:1037A000EAF723E0969587952A95E1F7FC01EE0F5D
:1037B000FF1FE80FF91FEA53FE4F20E030E070E0F2
:1037C0004081CB01022E02C0969587950A94E2F7BC
:1037D0008170819584278523842781932F5F3F4FB4
:1037E0002330310569F7089580938D0108959091F4
:1037F0008D0121E030E0F90101C0EE0F8A95EAF772
:10380000D90102C0AA0FBB1F6A95E2F7BD016E2B5A
:1038100001C0220F4A95EAF7892F8623681303C057
:10382000892F822B03C02095822F89230E94F41BAD
:10383000089521E030E001C0220F8A95EAF7209533
:1038400080918D0182230E94F41B089521E030E0D5
:1038500001C0220F8A95EAF780918D01822B0E9488
:10386000F41B089580938C01089592959F70963073
:1038700079F010F4925001C09A50923068F4803F71
:1038800069F018F4883E40F409C0843F29F406C06A
:10389000883E20F0813F11F080E0089581E0089596
:1038A000FC012481222371F087819085009719F013
:1038B0000E94482904C0808191810E947E1B0E9441
:1038C000351C089580E00895A8E1B0E0EAE6FCE147
:1038D0000C94AF358C0186E0F801DE01539601901F
:1038E0000D928A95E1F7D80114967C90149715965D
:1038F000EC9087E0A82E84E0B82E80910B04811113
:1039000022C0772009F45BC0EE2009F455C0C8013D
:103910000E94501CF82E882309F44EC089E0F8015B
:10392000A7E0B4E001900D928A95E1F780910B0435
:10393000813031F480910704909108040E947E1B2D
:103940000E94F92BC0C1F80150806180C280D380F1
:1039500060E087E094E00E946531F0900C04809173
:10396000090490910A044601881A990A60E087E0E8
:1039700094E0FF2009F431C10E94653167E074E0F2
:103980000E94DB258816990608F0CCC07720B9F094
:1039900080910D04382F307F20910804D8011196B2
:1039A0009C911197332371F0291709F47AC0C8014B
:1039B0000E94501C811189C0C8010E94F803FF2495
:1039C000F39481C129131FC0209107049C912913EE
:1039D0001AC040910E0450910F0417962D913C91FE
:1039E00018974217530779F4E1100DC08F7080616A
:1039F00080930D0487E094E00E94F80380910D0409
:103A0000F80186839DC0E1103AC040E0662D852D07
:103A10000E94CF2BE82E882329F08091E90480FFB3
:103A20008FC036C05B8A6C8A8B899C890E947E1B02
:103A3000292F22952F70243020F49F70223028F0F7
:103A400009C02A50223080F014C0992349F0811116
:103A500007C013C0992321F0F8019681907F69F087
:103A6000805E883030F409C0803F38F0815F833059
:103A700020F0C8010E94F803EF2CFE2C24C1809195
:103A80000D04816080930D048091E90481FD58C08C
:103A900087E094E00E94F803E7E0F4E089E0DF01CA
:103AA0004CC020910704F8019081291380CF4091E8
:103AB0000E0450910F04278130854217530709F0F7
:103AC00076CFE11074CF8683DFC0EE2009F474CF87
:103AD00020910D04822F82958F7090E00297BCF0A8
:103AE00080910704909108049B878A87DD86CC86A5
:103AF00080910B048E871F86288B80910E049091F5
:103B00000F049A8B898BCE010A960E94F80389E0F4
:103B1000F801A7E0B4E001900D928A95E1F70E94C8
:103B2000F92B4DCF80910D04982F907F59F487E0A9
:103B300094E00E94F80389E0D5011D928A95E9F787
:103B4000F12CC1C0772009F43ACF20910804F80184
:103B5000918129131AC0209107049081291315C05F
:103B600040910E0450910F0427813085421753076E
:103B700061F4E1100AC08683C8010E94F80389E05D
:103B8000D5011D928A95E9F79EC0C8010E94501C7C
:103B9000882309F411CFEE2009F40ECF20910D04F3
:103BA000822F82958F7090E002970CF4B0CF8091B5
:103BB0000704909108049A838983DC82CB828091E8
:103BC0000B048D831E822F8380910E0490910F042D
:103BD00099878887CE01019698CF0E94653167E06A
:103BE00074E00E94DB258816990608F067C07720EC
:103BF00009F4E5CEFE2CEE2009F4DECE9091080407
:103C0000F801818198134CC090910704808198132A
:103C100047C020910E0430910F04878190852817AA
:103C20003907F1F5A0900904B0900A0460E087E03C
:103C300094E00E9465318091E90482FD28C0CA1891
:103C4000DB088091E4049091E504C816D906F8F4E5
:103C500020910D0420FD1BC0822F82958F70482F6C
:103C600050E04115510599F0D80116962C931697FE
:103C70004F30510549F08F5F982F9295907F822F9A
:103C80008F70892B16968C93C8010E94F80389E0E7
:103C9000F801A7E0B4E001900D928A95E1F713C016
:103CA000C8010E94501C811132CF80910D048160A7
:103CB00080930D04C8010E94F80305C089E0F50156
:103CC00011928A95E9F78F2D6896EFE00C94CB3529
:103CD0001092320380910D01813041F480910805EA
:103CE00087FF04C08EE1E8E9F4E003C086E0E0E984
:103CF000F4E0DF011D928A95E9F780E090E00E94F0
:103D0000BA2D80E090E00E94952D1092FF040E9451
:103D1000732BE6EFF4E086E0DF011D928A95E9F768
:103D20001092CB041092F0041092F1040E94E32E42
:103D30000895A2E1B0E0EFE9FEE10C94BA350A87FC
:103D40001B872C873D874E875F87688B798B8A8B93
:103D5000CE010A960E94641C81113BC089E0FE01DD
:103D60003A96DE01119601900D928A95E1F76E85E3
:103D7000662379F12091100430E0C9010196877023
:103D800099274091590450E084179507A1F06D835D
:103D900099E0929FD001939FB00D1124AF5EBB4F6D
:103DA000FE01319601900D929A95E1F780931004EF
:103DB0000E94EF2B0EC00E94681E109210041092F9
:103DC0005904E7E0F4E089E0DF011D928A95E9F704
:103DD00019C019E08091590490911004891791F04D
:103DE000189FC00111248F5E9B4F0E94641C882382
:103DF00049F08091590490E001968770992780934B
:103E00005904E8CF6296E4E00C94D635882321F07B
:103E10000E94BD2A0E94732B0895882339F0909147
:103E2000FF04892B8093FF040E94732B089588233D
:103E300021F00E94C42A0E94732B0895882321F048
:103E40000E94CB2A0E94732B0895662309F45CC05C
:103E50008D3C21F40E94462F819504C08E3C29F4AC
:103E60000E94462F8093F904C5C08F3C21F40E9424
:103E7000462F819504C0803D29F40E94462F8093EF
:103E8000F804B8C0893D19F40E940D2F05C08A3D81
:103E900031F40E940D2F81958093FA04ABC08B3DC5
:103EA00021F40E940D2F819504C08C3D29F40E94BD
:103EB0000D2F8093FB049EC09FE2980F983078F4FA
:103EC00021E030E0A90102C0440F551F9A95E2F7A6
:103ED000CA019091F704892B8093F7048BC08D3D24
:103EE00021F48091F10481600CC08E3D21F4809119
:103EF000F104826006C08F3D09F07CC08091F1041E
:103F000084608093F10476C08D3C39F49091F9047B
:103F100097FF35C01092F90459C08E3C29F4909156
:103F2000F9041916BCF32BC09091F8048F3C29F4C6
:103F300097FF25C01092F80449C0803D19F4191666
:103F4000CCF31DC09091FA04893D29F41916BCF4F4
:103F50001092FA043BC08A3D19F497FF10C0F8CFC5
:103F60008B3D39F49091FB0497FF09C01092FB043C
:103F70002DC08C3D21F49091FB041916BCF39FE2F7
:103F8000980F983080F421E030E0A90102C0440F7E
:103F9000551F9A95E2F7CA0180959091F7048923FD
:103FA0008093F70413C08D3D21F48091F1048E7F3E
:103FB0000BC08E3D21F48091F1048D7F05C08F3DB3
:103FC00029F48091F1048B7F8093F1048091F804AF
:103FD000811106C08091F904811102C01092CB04B6
:103FE0008091FA04811106C08091FB04811102C006
:103FF0001092F0040E94E32E0895882381F19CEF33
:10400000980F913A18F40E94302D0DC090E2980F4D
:10401000983060F4877091E001C0990F8A95EAF7B3
:10402000892F0E94C42A0E94732B08959BE5980F44
:10403000933028F480E090E00E94BA2D089598E52E
:10404000980F9B3128F480E090E00E94952D089510
:1040500093E3980F933118F460E00E94251F0895B0
:10406000CF93882309F46AC0C82F8CEF8C0F813A54
:10407000A0F580910D018130E1F48091080587FF62
:1040800018C0EC2FE695E695E695F0E0EA56FB4F72
:104090008281282F30E04C2F477081E090E002C0F1
:1040A000880F991F4A95E2F782239323892B61F4A5
:1040B00010C0E0E9F4E086E994E02191C21721F014
:1040C0008E179F07D1F705C08C2F0E94302D0E94BC
:1040D000732B8C2F0E945E2D0CC080E28C0F8830D9
:1040E00058F4C77081E001C0880FCA95EAF70E94B2
:1040F000CB2A0E94732B22C0EBE5EC0FE33040F497
:10410000F0E0E05CFE4F808190E00E94BA2D16C086
:10411000E8E5EC0FEB3150F4F0E0EE0FFF1FED5B44
:10412000FE4F808191810E94952D08C083E38C0F02
:10413000833120F461E08C2F0E94251FCF910895D8
:104140001F93CF93DF93182FEB010E94302020970D
:1041500041F08FE99FE00197F1F700C0000021973F
:10416000F6CF812F0E94FD1FDF91CF911F910895FF
:10417000893329F46091EC047091ED0404C06091DE
:10418000EA047091EB040E94A0200895A0E0B0E042
:10419000ECECF0E20C94B4354430510508F46CC0FA
:1041A0004091080541FBCC24C0F8D12CCC0CDD1C7F
:1041B00042FB882780F9C82FE0E0DE2FCC0FDD1FFF
:1041C000CC0FDD1FCC2ADD2A40FBEE24E0F8F12CD9
:1041D000EC28FD2843FBAA27A0F9B0E023E0AA0FB2
:1041E000BB1F2A95E1F7EA2AFB2A44FBEE27E0F9F8
:1041F000F0E034E0EE0FFF1F3A95E1F7EE29FF29DA
:1042000045FB222720F930E055E0220F331F5A9555
:10421000E1F72E2B3F2B46FB882780F990E0E6E064
:10422000880F991FEA95E1F7822B932B47FB4427D0
:1042300040F950E05695542F442757954795842BC5
:10424000952B20910905322F3170132F00E0082B98
:10425000192B26952170B22EBB0CA12C0A291B29E3
:10426000012E000C220B330BFB01008311832283F0
:10427000338380E090E002C08FEF9FEFCDB7DEB7D1
:10428000EAE00C94D035ECECF4E0848195812AE0EE
:1042900030E0B9010E9477356093120186818093E6
:1042A000110182858093180184858093170186858A
:1042B0009785B9010E9477356093100180898093BA
:1042C0000F01828980931A018489809319010895CE
:1042D0008091CC049091CD049093140180931301AC
:1042E00008950F931F93CF93DF930CEC14E0C8E66F
:1042F000D1E0CE010E941D35F80161918F01681750
:1043000019F0CE010E943B352196CC38F1E0DF0751
:1043100081F7DF91CF911F910F910895CF92DF9296
:10432000EF92FF924430510508F471C0FB01C08048
:10433000D180E280F3800E94681E80910805C0FA57
:1043400080F9B701A601769567955795479540FB8B
:1043500081F9B701A60122E07695679557954795B3
:104360002A95D1F740FB82F9B701A60133E0769593
:104370006795579547953A95D1F740FB83F9B70173
:10438000A601E4E07695679557954795EA95D1F7AC
:1043900040FB84F9B701A601F5E07695679557953E
:1043A0004795FA95D1F740FB85F9B701A601A6E03C
:1043B0007695679557954795AA95D1F740FB86F96D
:1043C000B701A601B7E07695679557954795BA95D9
:1043D000D1F740FB87F98093080580910905D0FA51
:1043E00080F999E0F694E794D794C7949A95D1F719
:1043F000C0FA81F98093090560910805709109055B
:1044000084E090E00E94593580E090E002C08FEF98
:104410009FEFFF90EF90DF90CF900895DA019C011D
:104420002E5F3F4FF90145915491F9012591349147
:10443000A217B30758F0FC013496859194910E941D
:10444000F0350E94712180E090E008958FEF9FEF9A
:1044500008959C01CA01F90132964591549184173F
:10446000950750F0CB01F9013496659174910E9443
:10447000F03580E090E008958FEF9FEF08951F934F
:10448000CF93DF93962F8430E8F46430D8F44A3029
:10449000C8F4632F122FC42FD0E0CC0FDD1F24E10E
:1044A000929FC00DD11D112490E5899FC00DD11D93
:1044B0001124CE0188960E943B35612FCE0189964A
:1044C0000E943B35DF91CF911F9108950F931F9369
:1044D000CF93DF93843008F56430F8F44A30E8F481
:1044E000C42FD0E0CC0FDD1F24E1629FC00DD11D91
:1044F000112430E5839FC00DD11D1124CE01889673
:104500000E941D3590E0182F0027CE0189960E9449
:104510001D359801282BC90102C080E090E0DF9191
:10452000CF911F910F910895BC0140910304809198
:104530000404942F981729F1292F30E0F901EE0F88
:10454000FF1FE550FC4F0190F081E02DE617F707C3
:1045500099F487E0869FF001879FF00D1124E65AB9
:10456000FC4F81E0848394130CC02F5F3F4F237076
:1045700033272093030408952F5F3F4F922F9370AA
:10458000D9CF0895EF92FF920F931F93CF93DF93AC
:10459000809192038823D9F1C09159038DE0F82EC0
:1045A00080919203C81778F5EE24E394EC0EE09224
:1045B0005903D0E0FC9EF001FD9EF00D1124ED5654
:1045C000FC4F84818823E9F087819085892B21F431
:1045D00081859285019659F4008111812281338170
:1045E000448155816681778180850E94991EFC9E59
:1045F000F001FD9EF00D1124ED56FC4F1482109237
:10460000FF04CE2DCDCF1092920310925903CDB757
:10461000DEB7E6E00C94D43510925803109257039D
:10462000EAE5F3E08581811102C014821682379693
:1046300083E0E239F807B1F708951092060410926A
:1046400005041092160180910404809303040E94D3
:104650000C230E94C2220895A0E0B0E0E2E3F3E25E
:104660000C94AD35C091030497E0992E01E010E061
:104670002DE0322E34E0432E5524539480910404CF
:10468000C81709F479C0D0E0FE01EE0FFF1FE55016
:10469000FC4F80819181989ED001999EB00D11248C
:1046A000A65ABC4F14962C911497211162C0709099
:1046B0009203E3E9F3E020E030E0812C5D0127156F
:1046C00008F055C0E384F484D501CD90DC906FEF01
:1046D0007FEF612C462D50E0DA01AA0FBB1FAC0D15
:1046E000BD1D0D90BC91A02D109731F0EA16FB0670
:1046F00009F4BA016394EECF6F3FBFEF7B0799F1E6
:10470000D80102C0AA0FBB1F6A95E2F78A2AB80136
:10471000062C02C0660F771F0A94E2F7AB014150E6
:104720005109682D70E046175707E1F4329EF001F9
:10473000339EF00D1124ED56FC4F989ED001999EAA
:10474000B00D1124A65ABC4F12962D913C9113978F
:104750003087278344821082118292878187159641
:104760005C9205C014822F5F3F4F3D96A8CF0E94F8
:1047700094222196C37082CF0E94C2220E940C23F1
:10478000CDB7DEB7E1E10C94C93580911501877F83
:104790008093150182E00E94BD2A8091150184FF5B
:1047A00006C08F7E8093150182E00E94CB2A809103
:1047B000150185FF06C08F7D8093150180E20E9460
:1047C000CB2A0E94732B0895662329F02091FF04C1
:1047D00022602093FF049C0130522115304308F4DD
:1047E00099270E9433340895009741F0EFE9FFE0E4
:1047F0003197F1F700C000000197F6CF0895A0E0CF
:10480000B0E0E5E0F4E20C94B4355C017B01C42E29
:1048100089018091150182FF88C0C0915503D09114
:104820005603CA15DB0521F0A114B10409F07DC0BF
:10483000809115018B7F8093150181FD11C08091BE
:10484000530390915403A701481B590B81E0209119
:104850001301309114014217530718F480E001C08E
:1048600081E08170D82E80911501D0FA81F9809372
:104870001501FE01FF2784E0F695E7958A95E1F79B
:104880009E012F703327EE0FFF1FED5CFC4F81E080
:1048900090E002C0880F991F2A95E2F7DD2029F0E9
:1048A00020813181822B932B06C0809590952081A9
:1048B000318182239323918380838091320381FF0E
:1048C00008C08091150180618093150182E00E94EB
:1048D000C42A8091320385FF08C08091150180624F
:1048E0008093150180E20E94C42AA8016D2DCE019B
:1048F0000E94E423CC2031F08091E70485FF02C0C0
:1049000086FF2BC08091EA049091EB040E94F4236F
:1049100080915503909156039C01305221153043EC
:1049200008F499270E94193412C0C50190528115CC
:10493000904318F4C501992701C0C5010E9419349C
:104940008091550390915603A816B90611F40E9460
:10495000C523F0925403E0925303CDB7DEB7EAE0EB
:104960000C94D0350F931F93CF93DF930CEC14E08E
:10497000C8E6D1E0CE010E941D35F80181938F0178
:104980002196CC38F1E0DF07A9F7C0E0D0E0FE01C6
:10499000E153FB4F85919491009711F0FC0109952B
:1049A0002C96CC3FD10599F7DF91CF911F910F91B4
:1049B0000895ECECF4E0128E138E8FEA90E0918370
:1049C000808325E0248F88E893E1938382838AE0C3
:1049D00090E09583848344E150E05783468348E028
:1049E00050E051874087938782876EE170E075873A
:1049F00064879787868780E590E0918B808B538BC7
:104A0000428B48E250E0558B448B42E350E0578B99
:104A1000468B48EC50E0518F408F158E178E168EC6
:104A200091A380A322A30E9471210E94681E10926C
:104A3000090510920805E9E0F5E080818460808333
:104A4000609108057091090584E090E00E94593555
:104A50000E94B2240895AAE0B0E0E1E3F5E20C94EC
:104A6000B4350AEB12E08CE2E82E82E0F82E9FE0EB
:104A7000B92E29EBC22E22E0D22EAA24A3944AE01A
:104A800050E0B701CE0101960E940D35F8018B2D43
:104A900011928A95E9F789819A81F801918380833F
:104AA0008F8182838D8183838885848389858583B3
:104AB0008B819C819783868310868A8587FF03C0BC
:104AC0001686158603C0F801D686C58680FF02C00B
:104AD000F801A08681FF04C0F8019085926090875C
:104AE00082FF04C0F80190859460908783FF04C022
:104AF000F80190859860908784FF04C0F801908544
:104B00009061908785FF04C0F8018085806280876E
:104B1000FAE0EF0EF11C015F1F4F8CE7E81682E010
:104B2000F80609F0ACCF2A96EAE00C94D035AAE05A
:104B3000B0E0EDE9F5E20C94B63580E5E9E6F2E0A7
:104B4000DF011D928A95E9F788E3EAE5F3E0DF01EA
:104B50001D928A95E9F789E6C82E82E0D82E7F015A
:104B60000CED11E0F701D182C0824AE050E0B801BB
:104B7000CE0101960E940D3588E0FE013196D601E6
:104B800001900D928A95E1F789859A85D701139650
:104B90009C938E931297BAE0CB0ED11CE7E0EE0EF9
:104BA000F11C065F1F4F0C32F2E01F07D9F62A9660
:104BB000E8E00C94D235AAE0B0E0E1EEF5E20C9426
:104BC000BC359C0137552F3F310509F050F4BE012B
:104BD0006F5F7F4F0E942B31892B19F489859A854D
:104BE00004C08091E4049091E5042A96E2E00C94DC
:104BF000D835E9EEF1E080E090E061EC76E248EE55
:104C000056E226E336E2778366835187408733870F
:104C1000228797878687019670968830910599F745
:104C20000895A6E0B0E0E7E1F6E20C94BC3590937D
:104C3000D6018093D501811520E2920718F40E94D5
:104C4000193410C080EF89838A830E94FB2C816015
:104C5000682F9C838B8349815A817C8181E090E01D
:104C60000E9474312696E2E00C94D8350F931F937E
:104C7000CF93DF938C01EB016FED71E08C2F0E94DD
:104C80002B31892B09F042C08091EA049091EB040A
:104C90000E94F423DD27C952DE4F8881F801128279
:104CA0001882833079F048F4813041F1823071F517
:104CB0008091E1019091E20109C0843051F085308A
:104CC000E9F024C08091E3019091E4010097B1F0F4
:104CD0001BC08091E5019091E6010097A9F4209115
:104CE000DF013091E0018091E1019091E201211515
:104CF000310541F0009741F4C90106C08091DF0100
:104D00009091E001009711F00E941126DF91CF9160
:104D10001F910F910895A6E0B0E0E1E9F6E20C944E
:104D2000BC359093D6018093D501811520E292077E
:104D300018F40E94333410C080EF89838A830E9464
:104D4000FB2C8160682F9C838B8349815A817C81F5
:104D500081E091E00E9474312696E2E00C94D8350F
:104D6000CF93DF93EC010E948B268091EA0490910F
:104D7000EB040E94F423CE010E941126DF91CF9113
:104D800008950F931F93CF93DF938C01862F6FEDC0
:104D900071E00E942B31892BB1F4C091DF01D091D9
:104DA000E001209781F0F8018281833039F4CE014F
:104DB0000E94B026CE010E94B02602C0843018F0B6
:104DC000CE010E94B026DF91CF911F910F910895DF
:104DD0000F931F93CF93DF938C01EB016FED71E085
:104DE0008C2F0E942B31892B09F067C0DD27F80139
:104DF0008281813039F4958192FD13C090FF11C0FA
:104E000082E00FC0823041F4F801858182FD06C046
:104E100080FD06C083E005C086E003C085E001C0D8
:104E200084E0C952DE4F88838330B1F028F48130AA
:104E300071F0823031F041C08430A9F0853079F1D1
:104E40003CC08091E1019091E2010097A1F5809131
:104E5000DF019091E00120C08091E3019091E40195
:104E60000097E9F028C08091E5019091E601009754
:104E700011F58091DF019091E001009749F00E94C7
:104E8000B0268091E1019091E201009781F013C07A
:104E90008091E1019091E201009779F00CC080913E
:104EA000DF019091E001009741F00E94B0268091CF
:104EB000DF019091E0010E948B26DF91CF911F913D
:104EC0000F91089581152CE7920759F48091B6044B
:104ED0009091B704892B19F480E090E0089580E068
:104EE0009CE7089580E008959091080592FF10C016
:104EF00041E0282F2471243009F040E031E0282FD0
:104F00002871283009F030E0431711F02CE0822797
:104F100093FF10C041E0282F2471243109F040E0B4
:104F200031E0282F2871283109F030E0431711F0C3
:104F30002CE082273091090530FF10C051E0282F66
:104F40002171213009F050E041E0282F28712830EC
:104F500009F040E0541711F029E0822731FF10C01A
:104F600041E0282F2171213109F040E031E0282F64
:104F70002871283109F030E0431711F029E0822729
:104F800094FD877E08958238910569F1B0F48133EC
:104F9000910509F475C048F48932910509F467C098
:104FA0008A32910509F471C008958533910509F499
:104FB00059C089339105B9F00895833E910589F16F
:104FC00038F4803E9105D1F0823E910529F1089593
:104FD000863E9105C9F1873E9105D9F1843E910540
:104FE00009F06CC027C02091080520FD57C021FDA5
:104FF00055C02091090523FD5BC0089580910805E7
:1050000080FD48C08091090580FF48C08091080557
:1050100084FD46C083EE51C08091080582FF3CC0EC
:10502000F5CF8091080582FD37C08091090580FD8C
:1050300035C0ECCF8091090581FF36C0809108050D
:1050400084FD2EC087EE39C08091080583FF2AC0F9
:10505000F5CF8091080583FD25C08091090581FD6C
:1050600023C0ECCF8091080585FD22C01FC0809130
:10507000080585FD1BC08091090583FF19C00AC082
:105080008091080586FD16C017C08091080586FD31
:1050900013C010C089E311C082EE0FC080EE0DC0B6
:1050A00080E00BC086EE09C084EE07C085E305C032
:1050B00089E203C08AE201C081E390E00895F89498
:1050C000E82FE295EF70F0E031A1282F2F7081E0FA
:1050D00090E001C0880F2A95EAF7982F90959323C6
:1050E00091A392A1892B82A378940895A8E0B0E0BF
:1050F000ECE7F8E20C94B035AE014F5F5F4F7A01F8
:1051000088E0FA0111928A95E9F703E211E06A0159
:1051100097E2692E91E0792E88248394912CF801EE
:1051200080818F3F09F447C0F894E82FE295EF7033
:10513000F0E021A18F70A40102C0440F551F8A9591
:10514000E2F7CA01922F982B91A392A1809589230F
:1051500082A3789400C0E7E2F1E021E030E0A12CE6
:10516000B12C41914F3F89F0A42FA295AF70B0E0D0
:1051700090968C9190E04F7002C0959587954A95D6
:10518000E2F780FD02C0C90102C080E090E0A82AD9
:10519000B92A220F331F51E0E133F50711F7F80167
:1051A00080818F3F11F00E945F28F0EAFA95F1F7B5
:1051B000F601B182A0820F5F1F4FF2E0CF0ED11C2B
:1051C0006016710609F0ABCF48E050E0B70184E803
:1051D00091E00E94E335892B91F088E0F701A4E883
:1051E000B1E001900D928A95E1F781E080938D0402
:1051F0000E94FB2C90938C0480938B040EC08091B2
:105200008D04882351F000918B0410918C040E942E
:10521000FB2C801B910B059710F480E018C048E030
:1052200050E064E871E087EA91E00E94E335892B61
:1052300059F088E0E4E8F1E0A7EAB1E001900D92CE
:105240008A95E1F781E001C080E010928D042896F4
:10525000EEE00C94CC352091AF013091B001232BBE
:10526000A1F4703F39F4603F81F48091D5019091B1
:10527000D6010895743048F46A3038F4843028F444
:10528000462F672F0E946622089580E090E00895DF
:105290001F93CF93DF930E94C327EC01C11580E5D4
:1052A000D807E8F5C11590E4D90708F0A8C0C03EBA
:1052B000D10530F5CD3CD10508F094C0C83AD105F0
:1052C00078F4C53AD10508F083C0C130D10509F49E
:1052D0007CC008F4F2C0C430D10508F0F1C0EDC0C4
:1052E000C33CD10508F0E9C0C85AD0E0CC0FDD1F9F
:1052F000CD5BDE4F0990D881C02DCE019464E1C012
:10530000C11580E2D80708F0CBC0C11591E0D907DC
:1053100008F06BC0C83ED10508F4D2C0CEC0C0367C
:1053200082E5D80728F5C03492E5D90708F079C09E
:10533000C03282E5D80708F06CC0C11592E5D907E4
:1053400008F481C04C2F4695469580E2489FA00105
:105350001124C37021E030E0C90102C0880F991FF9
:10536000CA95E2F7EA01C82BD92BCE019D68A9C0E6
:10537000C03A82E5D807B8F48C2F8F71C03892E517
:10538000D90708F07BC08695869590E2899F9001A9
:105390001124C37081E090E002C0880F991FCA9564
:1053A000E2F79A6868C0C03C82E5D80708F46DC08F
:1053B000C03E92E5D90708F080C0CF71DD27DC2F11
:1053C000CC27CE01806F906A7CC081E090E079C0EC
:1053D000C55AD0E0C05CDE4F8881C82FD0E0CE0136
:1053E00090646FC0CE0190656CC08D2F0E947427B1
:1053F000182FCE0199270E94C3271F715CC0CE01D0
:1054000099270E94C327CC27DF70D06A8C2B9D2B55
:1054100058C0CF71D0E0DC2FCC27CE01816F906ACD
:1054200050C08C2F8F718695869590E2899F900150
:105430001124C37081E090E002C0880F991FCA95C3
:10544000E2F79C6818C08C2F8F710E94742795E03A
:10545000D695C7959A95E1F7CF70D0E0DC2FCC2791
:10546000282F30E084FF05C084E0220F331F8A9587
:10547000E1F7D069CE01822B932B23C090E0D82F87
:10548000CC27CE01846F906A1CC08C2F8F710E9434
:1054900074278F7190E0D82FCC27CE01906211C075
:1054A0008D2F8F710E947427182FCE0199270E948B
:1054B000C3271F719062912B04C080E090E001C06F
:1054C000CE01DF91CF911F910895A6E0B0E0EBE609
:1054D000FAE20C94BA350E94FB2C8C01809189046D
:1054E00090918A040817190781F019821A820E9484
:1054F000FB2C682F49815A81792F80E090E00E942F
:10550000743110938A04009389042696E4E00C9485
:10551000D63580918804882331F010928804109247
:105520008704109286040895CF939091090592FF05
:105530000DC090918804981749F0C82F0E94FB2C49
:105540009093870480938604C0938804CF91089534
:1055500090918804292F282379F0809589238093BE
:105560008804882319F00E94FB2C02C080E090E0A0
:105570009093870480938604089580959091FF040A
:1055800089238093FF0408958095909132038923A5
:1055900080933203089590913203892B80933203D4
:1055A000089510925D0410925C0410925B040895BB
:1055B00090915D048095892380935D04282F277046
:1055C00069F4981759F09091090592FF07C08695E4
:1055D000869586950E94191C0E94D12A0895909163
:1055E000090592FB222720F9281779F080FB92F910
:1055F00090930905609108057091090584E090E099
:105600000E94593582E00E94D82A08959091090598
:1056100092FF10C098E0899F90011124262B2093BF
:105620005D040E94261C0E94FB2C90935C048093D6
:105630005B0408950E94261C08958091CE049091E9
:10564000CF04892B89F00E94FB2C20918604309195
:105650008704AC01421B530B81E02091CE043091B2
:10566000CF044217530708F480E081700895CF9368
:10567000C09132038091FF04C82B80918804882355
:1056800049F18091CE049091CF04892B29F00E949A
:105690001D2B81110E94892A80918804C82B80913A
:1056A0000D01813041F48091080587FF04C02EE18F
:1056B00088E994E003C026E080E994E0FC0180E002
:1056C000215028F091919923D9F38F5FF9CF81115F
:1056D0000E94892A8091C4048095C8238091C504C2
:1056E0008C2BCF91089580910D01813051F58091DF
:1056F000080587FF26C00E94372B8093970440E25D
:1057000050E06EE574E086E994E00E94E335892B71
:10571000D9F180E2E6E9F4E0AEE5B4E001900D9263
:105720008A95E1F7E0910405F0910505309761F164
:1057300086E0809396040480F581E02D86E994E06C
:1057400022C00E94372B80938E0448E050E06EE721
:1057500074E08EE894E00E94E335892BA9F088E09C
:10576000EEE8F4E0AEE7B4E001900D928A95E1F73F
:10577000E0910405F0910505309731F00280F38146
:10578000E02D8EE894E00995089590915A04292F10
:10579000282321F08095982390935A04089520910E
:1057A00059049091100459E02917A9F030E0529F54
:1057B000F001539FF00D1124EF5EFB4F71817613C2
:1057C00006C07081781303C07581741306C02F5F03
:1057D0003F4F2770E9CF80E0089581E008958091E0
:1057E000590490911004891719F08F5F8770FBCFCF
:1057F0000895A0E0B0E0EFEFFBE20C94B7358091A4
:105800000D0482958F7009F052C080910C0488239A
:1058100009F44DC0C091590489E0D82E809110043C
:10582000C81709F444C0D0E0DC9E8001DD9E100D55
:105830001124F801EF5EFB4F84818823A9F1918147
:1058400080910804981330C09081809107049813C8
:105850002BC08581811128C0E280F38080910904EA
:1058600090910A04E81AF90A60E087E094E00E9447
:10587000653167E074E00E94DB25E816F906A0F4C4
:1058800080910D048F70806180930D04F801E95EB2
:10589000FB4F80818F708061808387E094E00E945D
:1058A000F8030E94EF2B03C02196C770B7CFCDB786
:1058B000DEB7E7E00C94D33580910C0108950F9387
:1058C0001F93CF93DF938B01EA019091BC01943039
:1058D00079F58F708093E9008FEF9091E800815007
:1058E00095FD06C095ED9A95F1F700008111F5CF71
:1058F0008091E80085FF1CC00E941C1B882361F07A
:105900008091E8008E778093E80012C0F8018191C1
:105910008F018093F1002197209791F38091E80007
:1059200085FDF4CF8091E8008E778093E800E4CF86
:10593000DF91CF911F910F91089540E250E0BC019B
:1059400084E00E945F2C0895CF93DF93EC0148E040
:1059500050E0BC0181E00E945F2C88E0FE01A2EBD8
:10596000B1E001900D928A95E1F7DF91CF91089512
:1059700087E797E790930108809300089AE088E111
:105980000FB6F894A895809360000FBE90936000C6
:10599000FFCF78941F920F920FB60F9211248F931E
:1059A0009F93AF93BF9380910B0590910C05A091AD
:1059B0000D05B0910E050196A11DB11D80930B053B
:1059C00090930C05A0930D05B0930E05BF91AF9178
:1059D0009F918F910F900FBE0F901F9018952FB72A
:1059E000F89460910B0570910C0580910D059091D4
:1059F0000E052FBF08952FB7F89480910B05909155
:105A00000C05A0910D05B0910E052FBF08951F92B2
:105A10000F920FB60F9211248F939F93AF93BF9362
:105A200080910A05811113C080910B0590910C059E
:105A3000A0910D05B0910E054196A11DB11D809359
:105A40000B0590930C05A0930D05B0930E05BF9127
:105A5000AF919F918F910F900FBE0F901F9018954F
:105A600090910D01913021F49091080597FD03C0AC
:105A7000EEE8F4E01DC0E82FE695E695E695EE31F8
:105A8000E0F4F0E0EA56FB4F877021E030E0A90136
:105A900002C0440F551F8A95E2F7CA018095928192
:105AA000892382830895319654E0E439F50729F07B
:105AB00092818913F8CF1282F6CF089590910D014B
:105AC0009130D1F49091080597FF16C0E82FE69524
:105AD000E695E695EE3140F5F0E0EA56FB4F87702B
